:100000000C9462000C947F000C947F000C947F0091
:100010000C947F000C947F000C947F000C9485015D
:100020000C947F000C947F000C947F000C947F0054
:100030000C947F000C947F000C947F000C947F0044
:100040000C943B010C947F000C947F000C947F0077
:100050000C947F000C947F000C947F000C947F0024
:100060000C947F000C947F00000000002300260009
:10007000290000000000240027002A0000000000E2
:10008000250028002B0004040404040404040202D4
:100090000202020203030303030301020408102007
:1000A0004080010204081020010204081020000012
:1000B0000008000201000003040700000000000027
:1000C00000006E0A11241FBECFEFD8E0DEBFCDBF07
:1000D00021E0A0E0B1E001C01D92AC3EB207E1F723
:1000E00010E0C2E6D0E004C02197FE010E94C60ADB
:1000F000C136D107C9F70E9420030C94140D0C944B
:100100000000833081F028F4813099F08230A1F032
:1001100008958730A9F08830B9F08430D1F4809107
:1001200080008F7D03C0809180008F778093800056
:10013000089584B58F7702C084B58F7D84BD0895FE
:100140008091B0008F7703C08091B0008F7D809345
:10015000B00008951F93CF93DF93282F30E0F9016B
:10016000E255FF4F8491F901E656FF4FD491F90112
:10017000EA57FF4FC491CC23C9F0162F81110E947A
:100180008100EC2FF0E0EE0FFF1FE458FF4FA59128
:10019000B4918FB7F894111105C09C91ED2FE095A3
:1001A000E92302C0EC91ED2BEC938FBFDF91CF914F
:1001B0001F910895CF93DF9390E0FC01E656FF4F27
:1001C0002491FC01EA57FF4F8491882361F190E06C
:1001D000880F991FFC01EE58FF4FC591D491FC0187
:1001E000E458FF4FA591B491611109C09FB7F894ED
:1001F0008881209582238883EC912E230BC0623066
:1002000061F49FB7F8943881822F80958323888387
:10021000EC912E2B2C939FBF06C08FB7F894E881EA
:100220002E2B28838FBFDF91CF9108953FB7F8948D
:100230008091D7019091D801A091D901B091DA01B4
:1002400026B5A89B05C02F3F19F00196A11DB11D31
:100250003FBFBA2FA92F982F8827820F911DA11D6C
:10026000B11DBC01CD0142E0660F771F881F991FA9
:100270004A95D1F708951F920F920FB60F9211244D
:100280002F933F938F939F93AF93BF938091D3010D
:100290009091D401A091D501B091D6013091D201B5
:1002A00023E0230F2D3720F40196A11DB11D05C0B9
:1002B00026E8230F0296A11DB11D2093D201809341
:1002C000D3019093D401A093D501B093D60180912E
:1002D000D7019091D801A091D901B091DA0101968E
:1002E000A11DB11D8093D7019093D801A093D9018E
:1002F000B093DA01BF91AF919F918F913F912F9170
:100300000F900FBE0F901F9018951F920F920FB66F
:100310000F9211242F933F934F935F936F937F938B
:100320008F939F93AF93BF93CF93DF93EF93FF93FD
:100330002091010130E0F901E255FF4F8491F9016C
:10034000E656FF4FD491F901EA57FF4FC491CC23F1
:10035000A1F081110E948100EC2FF0E0EE0FFF1F51
:10036000E859FF4FA591B491EC91ED2331E020E0E5
:1003700009F430E0832F922F02C080E090E02091BA
:100380000501309106012F5F3F4F30930601209306
:10039000050120910401253618F026E02093000184
:1003A000209100012430D9F128F4223069F0233063
:1003B000D9F060C0253009F453C0263009F05AC086
:1003C00021E02093D10153C0009709F053C0209140
:1003D0000501309106012436310508F443C010921E
:1003E000D101109204011DC08130910509F042C075
:1003F000E091040121E02E0F20930401F0E0209110
:10040000050130910601EE0FFF1FE050FF4F3087CE
:100410002783109206011092050124E029C000975D
:10042000B9F4E091040121E02E0F20930401F0E0E3
:100430002091050130910601EE0FFF1FE050FF4FA4
:1004400030872783109206011092050123E010C027
:1004500020910501309106012536310558F007C07D
:10046000009741F4109206011092050103C025E0A7
:1004700020930001209103012223B9F0892B51F42C
:1004800080910201882321F08091020161E009C07E
:100490002D9A0BC080910201882331F080910201D6
:1004A00060E00E94AA0001C02D98FF91EF91DF91BA
:1004B000CF91BF91AF919F918F917F916F915F91FC
:1004C0004F913F912F910F900FBE0F901F90189555
:1004D000CF92DF92EF92FF92CF93DF93EC01072E42
:1004E000000C880B990B0E94F70B6B017C0120E03C
:1004F00030E040E45FE30E94A70C20E030E048E4F5
:1005000052E40E944D0B0E94BF0BC617D707D4F0D0
:1005100020E030E040EA5FE3C701B6010E94A70C8B
:1005200020E030E048E452E40E944D0B20E030E04F
:1005300040E85FE30E94DC0A0E94BF0B21E06C17D9
:100540007D070CF420E0822F90E0DF91CF91FF90A7
:10055000EF90DF90CF9008958F929F92AF92BF92CD
:10056000CF92DF92EF92FF920F931F93CF93DF937F
:10057000FC01C081D1812091E7013091E801C217CF
:10058000D3070CF04BC09E01220F331FE091E50111
:10059000F091E601E20FF31F80809180C170DD27AA
:1005A000F1E0CF27209719F404E610E002C00CE92F
:1005B0001FEF7A015B016C01040F151FB801C40124
:1005C0000E946802892B99F40E0D1F1DB801C40109
:1005D0000E946802892B71F4B8016E0D7F1DC40161
:1005E0000E946802892BE9F023E030E005C021E099
:1005F00030E002C022E030E0F50180819181019677
:10060000821793073CF0F50111821082F601808178
:100610009181019691838083CE0105C081E090E0B5
:1006200002C08FEF9FEFDF91CF911F910F91FF904D
:10063000EF90DF90CF90BF90AF909F908F900895F4
:10064000CF93DF93CDB7DEB72C970FB6F894DEBF0C
:100650000FBECDBF789484B5826084BD84B58160BF
:1006600084BD85B5826085BD85B5816085BD80917D
:100670006E00816080936E001092810080918100F5
:1006800082608093810080918100816080938100ED
:10069000809180008160809380008091B1008460AF
:1006A0008093B1008091B00081608093B000809110
:1006B0007A00846080937A0080917A0082608093CF
:1006C0007A0080917A00816080937A0080917A002C
:1006D000806880937A001092C10061E08AE00E94F5
:1006E000DA0061E08BE00E94DA0060E08AE00E94BC
:1006F000AA0060E08BE00E94AA00F89482E0809358
:10070000B0008093B10094E69093B3001092B200D1
:10071000809370007894809300011092040180917E
:10072000010160E00E94DA0044244A94542C320112
:1007300010E2212E312C27E031E03093E6012093A6
:10074000E5018091040190E09093E8018093E70136
:100750008091D10190E09093EA018093E90180912A
:100760000001853009F05AC28091090190910A0177
:10077000885891098D35910588F480910401843061
:1007800041F480910B0190910C018097479708F4F8
:100790004DC280910401843408F0CDC180910401E0
:1007A0008A3108F44FC08091070190910801843F7D
:1007B000914068F41092E4011092E3014092DF014D
:1007C0005092E0016092E1017092E20159C0809183
:1007D000090190910A0185974B97A0F5EDE0F1E0B2
:1007E00082E090E0C12CD12C7601AC014F5F5F4FCD
:1007F0002091040130E0421753075CF4DF011297A7
:100800002D913C91275031092730310508F432C22F
:10081000CA010197959587959093E4018093E30130
:100820000C972CF41092E4011092E3010BC0C092DB
:10083000DF01D092E001E092E101F092E20184E078
:1008400090E051C3809104018A3108F44CC080913A
:100850000701909108018032934008F4ABCF80915A
:10086000090190910A01C697869708F420C23BC0FF
:10087000C092DF01D092E001E092E101F092E2014A
:100880008BE090E030C320813181255231092B313A
:10089000310508F01CC2CC0CDD1CEE1CFF1C68945A
:1008A000C0F802963496AC014F5F5F4F209104016F
:1008B00030E04217530754F4DF0112972D913C9119
:1008C0002C5031092B303105F0F2CA010197959572
:1008D00087959093E4018093E3010C974CF6109276
:1008E000E4011092E301809104018232E8F18091E9
:1008F000090190910A0106970797B0F5EDE0F1E044
:1009000082E090E0C12CD12C76019C012F5F3F4FFB
:100910004091040150E0241735076CF4DF01129771
:100920004D915C9111974E5151094731510508F491
:10093000F2C1DAC1C9010197959587959093E401B9
:100940008093E30140972CF41092E4011092E301AC
:100950000BC0C092DF01D092E001E092E101F09281
:10096000E2018CE090E0BFC21C821B8221E030E0FB
:100970003A832983809104018D3008F46BC049E7E4
:1009800053E0BE016D5F7F4FCE0101960E94AC0225
:10099000892B09F05FC049E753E0BE016D5F7F4FCF
:1009A000CE0101960E94AC02019709F053C049E7BD
:1009B00053E0BE016D5F7F4FCE0101960E94AC02F5
:1009C000892B09F047C0812C912C540100E010E0E4
:1009D0008091040190E029813A81281739075CF55C
:1009E00049E753E0BE016D5F7F4FCE0101960E9443
:1009F000AC027C0149E753E0BE016D5F7F4FCE0141
:100A000001960E94AC0231E0E316F10449F4892B0F
:100A100009F5880C991CAA1CBB1C689480F808C0B6
:100A2000EF28C1F40197B1F4880C991CAA1CBB1CD7
:100A30000F5F1F4FCDCF1093E4010093E30180922D
:100A4000DF019092E001A092E101B092E20181E029
:100A500090E049C21C821B82A1E0B0E0BA83A98366
:100A60008091E7019091E801181619060CF058C022
:100A7000E091E501F091E60182E090E09A838983BC
:100A80008281938189974E9708F04AC023E030E035
:100A90003A832983848195810B970A9708F040C097
:100AA0004CEB51E0BE016D5F7F4FCE0101960E947D
:100AB000AC02892BA9F54CEB51E0BE016D5F7F4F75
:100AC000CE0101960E94AC02019751F5812C912C28
:100AD000540100E010E029813A818091E701909172
:100AE000E801281739070CF053C14CEB51E0BE0167
:100AF0006D5F7F4FCE0101960E94AC026C01033006
:100B0000110509F00FC14CEB51E0BE016D5F7F4F45
:100B1000CE0101960E94AC02C816D90609F402C1A2
:100B2000E091E501F091E60182819381C697869775
:100B300008F43DC1DDC180910B0190910C018254FC
:100B400091098E9708F02ACE80E090E040E050E0D6
:100B5000BA01FC01E35FFE4F208131812950310948
:100B60002930310508F01ACEFC01E15FFE4F2081EB
:100B70003181275131092231310508F06EC0440F0F
:100B8000551F661F771F416004968038910509F74D
:100B90003092E4012092E3014093DF015093E001A1
:100BA0006093E1017093E201A3E0B0E0B093DC0157
:100BB000A093DB0161E08AE00E94AA000E94160176
:100BC0004B015C0180EDC82E87E0D82EE12CF12C82
:100BD0000E941601DC01CB0188199909AA09BB09F9
:100BE000883E9340A105B10558F031E0C31AD10801
:100BF000E108F10888EE880E83E0981EA11CB11C64
:100C0000C114D104E104F10419F760E08AE00E9404
:100C1000AA0082E0809300011092040180E090E03D
:100C2000892B09F488CD0E94000082CD80910D01AE
:100C300090910E010997099708F0ABCD1092E4014D
:100C40001092E3014092DF015092E0016092E101D5
:100C50007092E20183E090E046C12081318126500C
:100C600031092730310508F099CD440F551F661F13
:100C7000771F8ACF20813181235131092F303105EF
:100C800078F0208131812A5031092930310508F06E
:100C9000D9CDCC0CDD1CEE1CFF1C02963496A5CDE4
:100CA000CC0CDD1CEE1CFF1C6894C0F8F6CF8091C4
:100CB0000B0190910C01C697869708F014CEEFE0D7
:100CC000F1E083E090E0C12CD12C7601ECCD2081C5
:100CD00031812C5031092A30310508F004CECC0C7A
:100CE000DD1CEE1CFF1CDDCD4D915C914C5051097B
:100CF0004B30510508F038CECC0CDD1CEE1CFF1C2F
:100D0000408151813496435051094530510508F0D6
:100D100011CE0296FACDCC0CDD1CEE1CFF1C6894A3
:100D2000C0F8EECF4CEB51E0BE016D5F7F4FCE01BE
:100D300001960E94AC027C010330110569F44CEB72
:100D400051E0BE016D5F7F4FCE0101960E94AC0263
:100D5000E816F90609F0E4CEC114D10459F4EA9476
:100D6000EF2809F0DDCE880C991CAA1CBB1C6894E6
:100D700080F80BC0CA94CD2809F0D2CEEF2809F034
:100D8000CFCE880C991CAA1CBB1C0F5F1F4FA3CE93
:100D90001093E4010093E3018092DF019092E0015F
:100DA000A092E101B092E20182E090E09CC08481D7
:100DB00095814B97459708F09BC0DF0116967F0100
:100DC00036ECE30EF11C20E030E040E050E060E063
:100DD00070E080E090E0CD90DC90119719E0C11AAE
:100DE000D10818E0C116D10408F082C01296CD9047
:100DF000DC90139711E1C11AD1081DE0C116D1048E
:100E000020F501E00E948F0A21601496AE15BF05FF
:100E100011F72093DF013093E0014093E1015093FB
:100E2000E20100E20E94AA0A2093DD013093DE0174
:100E300085E090E09093DC018093DB0180E390E01B
:100E40009093E4018093E301B5CE1296CD90DC90AF
:100E5000139714E0C11AD10815E0C116D10408F0A7
:100E600047C001E00E948F0AD0CFA801425051092B
:100E7000DA014D915C91495051094830510508F013
:100E8000E5C0BC016F5F7F4FD8014D915C91475029
:100E900051094730510508F0D4C2220F331F216099
:100EA00002960C5F1F4F4091040150E044505109DD
:100EB00084179507D4F20197959587959093E4014F
:100EC0008093E3018A970CF4C1C0C901330FAA0BC8
:100ED000BB0B8093DF019093E001A093E101B093FD
:100EE000E20189E090E09093DC018093DB0162CE27
:100EF00080910401893370F182819381895791092E
:100F00008335910508F448C125C0D90112966D9129
:100F10007C911397665171096131710508F068C1C0
:100F2000D701C601880F991FAA1FBB1F6C017D0145
:100F30006894C0F84E5F5F4F2C5F3F4F4B335105B5
:100F400009F439C1D9016D917C916A5071096930F8
:100F50007105D8F280910401823231F4828193814B
:100F60000A97099708F454C182819381895791099E
:100F700083359105D0F4809104018132B0F08481F1
:100F80009581CA97899788F49F012A5F3F4FC12CAA
:100F9000D12C760143E050E0D9016D917C916A50EB
:100FA00071096930710508F44FC1828193818C54B5
:100FB0009109C59778F480910401843031F48481DB
:100FC00095818097479708F49FC1809104018434EC
:100FD00008F081C180910401863460F1828193819F
:100FE0000C970B9708F4D9C125C0D90112966D91C1
:100FF0007C9113976E5171096731710508F0E8C152
:10100000D701C601880F991FAA1FBB1F6C017D0164
:101010006894C0F84E5F5F4F2C5F3F4F45345105D9
:1010200009F4E5C1D9016D917C916C5071096B3067
:101030007105D8F280910401883540F08281938156
:10104000855891098B35910508F4ECC18091040114
:101050008032E1F48281938106970697B8F4848107
:1010600095810997099790F49F012A5F3F4FBF012F
:10107000625C7F4FC12CD12C7601D9014D915C91DE
:10108000465051094630510508F4E8C12091E70166
:101090003091E80138872F83263031050CF4B9CD23
:1010A0008F010A5F1F4F83E090E09E838D8395EC54
:1010B000C92E9DE9D92E9CE1E92E91E8F92ED8019F
:1010C0006D917C91F8013497A080B18080E090E030
:1010D0000E94F50B69877A878B879C87B50180E032
:1010E00090E00E94F50B4B015C012DEC3CEC4CE4D4
:1010F0005FE30E94A70C9B01AC0169857A858B8513
:101100009C850E94480B87FD19C02DEC3CEC4CE4FB
:101110005FE369857A858B859C850E94A70C9B017E
:10112000AC01C501B4010E94480BE82F880FFF0BEA
:10113000EE27FF0FEE1FFF27319602C0E0E0F0E040
:10114000A701960163E971E080E091E00E94740AD2
:101150006F01FF0FEE08FF08C626D726E826F926FE
:10116000ED81FE813196FE83ED830E5F1F4F2F814F
:101170003885E217F30709F0A2CFC092DF01D092C1
:10118000E001E092E101F092E2013092E40120926C
:10119000E3018FEF9FEFA7CE84819581CA9789974E
:1011A00008F0D8CE9F012A5F3F4FC12CD12C760189
:1011B00043E050E0C7CE9F012A583F4FD9012D91FF
:1011C0003C912A5031092930310508F0C3CE2CE179
:1011D00030E03093E4012093E301C092DF01D0922C
:1011E000E001E092E101F092E2018AE090E07BCE42
:1011F000D90112966D917C911397665071096730F1
:10120000710508F0A7CECC0CDD1CEE1CFF1C92CEA5
:1012100020910401CF01820F911D820F911DDC01ED
:1012200012978D919C910A97099708F09DCE109284
:10123000E4011092E3014092DF015092E0016092DC
:10124000E1017092E20144C1D90112966D917C9145
:101250001397665171096131710568F5D701C601AF
:10126000880F991FAA1FBB1F6C017D016894C0F8ED
:101270004E5F5F4F2C5F3F4F4332510509F08CCEDC
:101280009F012A5B3F4FD9012D913C912A50310992
:101290002930310508F089CEE0E1F0E0F093E40177
:1012A000E093E301C092DF01D092E001E092E1011E
:1012B000F092E2010DC1D90112966D917C911397C4
:1012C000665071096730710508F06FCECC0CDD1CDB
:1012D000EE1CFF1CCDCF8481958189549109C39761
:1012E00008F078CE9F012A5F3F4FBF016A577F4FBA
:1012F000C12CD12C7601D9014D915C9149505109F5
:1013000049305105A0F066CE8681978109970997EB
:1013100008F05BCE1092E4011092E3014092DF01ED
:101320005092E0016092E1017092E201D4C0D901D3
:1013300012964D915C9113974651510941315105D7
:10134000E0F4D701C601880F991FAA1FBB1F6C01CB
:101350007D016894C0F82C5F3F4F2617370759F678
:101360003092E4012092E301C092DF01D092E001CB
:10137000E092E101F092E201AEC0D90112964D91E6
:101380005C911397465051094730510508F022CE21
:10139000CC0CDD1CEE1CFF1CDECF848195810997EF
:1013A000099708F047CE868197818C974F9708F070
:1013B00041CE8085918589974D9708F03BCE9F015E
:1013C000265F3F4FC12CD12C760145E050E02ACE5C
:1013D00012966D917C91139769507109693071056E
:1013E00008F028CECC0CDD1CEE1CFF1C13CE9F0198
:1013F00026573F4FD9012D913C912C5031092B306C
:10140000310508F017CE3092E4012092E301C0923A
:10141000DF01D092E001E092E101F092E20188E088
:1014200090E061CD84819581825491098E9708F076
:101430000DCE8F01045C1F4F8DE190E020E030E085
:1014400032CDD8014D915C9148515109423151053D
:1014500010F0CB0130CD220F331F22CDD9011296CF
:101460004D915C911397495151094331510528F130
:1014700012964D915C91139749505109493051058D
:1014800008F004CECC0CDD1CEE1CFF1C2C5F3F4F83
:101490002617370709F0F1CD2EE030E03093E40154
:1014A0002093E301C092DF01D092E001E092E101DC
:1014B000F092E2018FE090E016CDD701C601880FCF
:1014C000991FAA1FBB1F6C017D016894C0F8DECF75
:1014D00086E090E008CD87E090E005CDE0E0F1E027
:1014E00089E0818313820895DB018F939F930E948B
:1014F000840ABF91AF91A29F800D911DA39F900D73
:10150000B29F900D112408950E94CC0AA59F900DC2
:10151000B49F900DA49F800D911D112408950F93E9
:10152000083090F0982F872F762F652F542F432F58
:10153000322F22270850F4CF220F331F441F551F8C
:10154000661F771F881F991F0A95B2F70F9108959C
:1015500097FB10F8169400080F93083098F0085085
:10156000232F342F452F562F672F782F892F902D1B
:10157000F4CF0594979587957795679557954795F7
:10158000379527950A95AAF70F910895EE0FFF1F3B
:101590000590F491E02D0994A29FB001B39FC00182
:1015A000A39F700D811D1124911DB29F700D811D8F
:1015B0001124911D08955058BB27AA270E94F30AB1
:1015C0000C946D0C0E945F0C38F00E94660C20F0A9
:1015D00039F49F3F19F426F40C945C0C0EF4E0955A
:1015E000E7FB0C94560CE92F0E947E0C58F3BA17B7
:1015F000620773078407950720F079F4A6F50C9429
:10160000A00C0EF4E0950B2EBA2FA02D0B01B90102
:1016100090010C01CA01A0011124FF27591B99F068
:10162000593F50F4503E68F11A16F040A22F232F74
:10163000342F4427585FF3CF469537952795A795C4
:10164000F0405395C9F77EF41F16BA0B620B730B6B
:10165000840BBAF09150A1F0FF0FBB1F661F771FDC
:10166000881FC2F70EC0BA0F621F731F841F48F491
:10167000879577956795B795F7959E3F08F0B0CF1A
:101680009395880F08F09927EE0F97958795089501
:101690000E94320C08F481E008950E94610B0C94C2
:1016A0006D0C0E94660C58F00E945F0C40F029F40B
:1016B0005F3F29F00C94560C51110C94A10C0C9422
:1016C0005C0C0E947E0C68F39923B1F3552391F3CF
:1016D000951B550BBB27AA2762177307840738F0A1
:1016E0009F5F5F4F220F331F441FAA1FA9F335D0FE
:1016F0000E2E3AF0E0E832D091505040E695001CB2
:10170000CAF72BD0FE2F29D0660F771F881FBB1F6B
:10171000261737074807AB07B0E809F0BB0B802D49
:10172000BF01FF2793585F4F3AF09E3F510578F075
:101730000C94560C0C94A10C5F3FE4F3983ED4F348
:10174000869577956795B795F7959F5FC9F7880F49
:10175000911D9695879597F90895E1E0660F771F9B
:10176000881FBB1F621773078407BA0720F0621B2C
:10177000730B840BBA0BEE1F88F7E09508950E9457
:10178000C60B6894B1110C94A10C08950E94860CAC
:1017900088F09F5798F0B92F9927B751B0F0E1F032
:1017A000660F771F881F991F1AF0BA95C9F714C0E2
:1017B000B13091F00E94A00CB1E008950C94A00CFF
:1017C000672F782F8827B85F39F0B93FCCF386951B
:1017D00077956795B395D9F73EF490958095709578
:1017E00061957F4F8F4F9F4F0895E89409C097FBF5
:1017F0003EF490958095709561957F4F8F4F9F4FE8
:101800009923A9F0F92F96E9BB279395F69587952B
:1018100077956795B795F111F8CFFAF4BB0F11F4EE
:1018200060FF1BC06F5F7F4F8F4F9F4F16C0882395
:1018300011F096E911C0772321F09EE8872F762FCB
:1018400005C0662371F096E8862F70E060E02AF00C
:101850009A95660F771F881FDAF7880F96958795F8
:1018600097F90895990F0008550FAA0BE0E8FEEFCD
:1018700016161706E807F907C0F012161306E40754
:10188000F50798F0621B730B840B950B39F40A264D
:1018900061F0232B242B252B21F408950A2609F42B
:1018A000A140A6958FEF811D811D089597F99F672F
:1018B00080E870E060E008959FEF80EC08950024D8
:1018C0000A941616170618060906089500240A94A5
:1018D00012161306140605060895092E0394000C2B
:1018E00011F4882352F0BB0F40F4BF2B11F460FFBA
:1018F00004C06F5F7F4F8F4F9F4F089557FD9058E3
:10190000440F551F59F05F3F71F04795880F97FBC3
:10191000991F61F09F3F79F087950895121613067D
:101920001406551FF2CF4695F1DF08C016161706AC
:101930001806991FF1CF86957105610508940895E1
:10194000E894BB2766277727CB0197F908950E9473
:10195000BA0C0C946D0C0E945F0C38F00E94660C5F
:1019600020F0952311F00C94560C0C945C0C11246F
:101970000C94A10C0E947E0C70F3959FC1F3950FFF
:1019800050E0551F629FF001729FBB27F00DB11D03
:10199000639FAA27F00DB11DAA1F649F6627B00D93
:1019A000A11D661F829F2227B00DA11D621F739F7C
:1019B000B00DA11D621F839FA00D611D221F749F8A
:1019C0003327A00D611D231F849F600D211D822FD1
:1019D000762F6A2F11249F5750409AF0F1F08823F8
:1019E0004AF0EE0FFF1FBB1F661F771F881F915025
:1019F0005040A9F79E3F510580F00C94560C0C9472
:101A0000A10C5F3FE4F3983ED4F3869577956795F4
:101A1000B795F795E7959F5FC1F7FE2B880F911D4E
:0C1A20009695879597F90895F894FFCFEC
:107E0000112484B714BE81FFF0D085E080938100F7
:107E100082E08093C00088E18093C10086E0809377
:107E2000C20080E18093C4008EE0C9D0259A86E02C
:107E300020E33CEF91E0309385002093840096BBD3
:107E4000B09BFECF1D9AA8958150A9F7CC24DD24C4
:107E500088248394B5E0AB2EA1E19A2EF3E0BF2EE7
:107E6000A2D0813461F49FD0082FAFD0023811F036
:107E7000013811F484E001C083E08DD089C08234E0
:107E800011F484E103C0853419F485E0A6D080C0E4
:107E9000853579F488D0E82EFF2485D0082F10E0AE
:107EA000102F00270E291F29000F111F8ED06801E7
:107EB0006FC0863521F484E090D080E0DECF843638
:107EC00009F040C070D06FD0082F6DD080E0C81688
:107ED00080E7D80618F4F601B7BEE895C0E0D1E017
:107EE00062D089930C17E1F7F0E0CF16F0E7DF06D8
:107EF00018F0F601B7BEE89568D007B600FCFDCFD4
:107F0000A601A0E0B1E02C9130E011968C91119780
:107F100090E0982F8827822B932B1296FA010C0160
:107F200087BEE89511244E5F5F4FF1E0A038BF0790
:107F300051F7F601A7BEE89507B600FCFDCF97BE46
:107F4000E89526C08437B1F42ED02DD0F82E2BD052
:107F50003CD0F601EF2C8F010F5F1F4F84911BD097
:107F6000EA94F801C1F70894C11CD11CFA94CF0C13
:107F7000D11C0EC0853739F428D08EE10CD085E9AC
:107F80000AD08FE07ACF813511F488E018D01DD067
:107F900080E101D065CF982F8091C00085FFFCCF94
:107FA0009093C60008958091C00087FFFCCF809118
:107FB000C00084FD01C0A8958091C6000895E0E648
:107FC000F0E098E1908380830895EDDF803219F02E
:107FD00088E0F5DFFFCF84E1DECF1F93182FE3DFCA
:107FE0001150E9F7F2DF1F91089580E0E8DFEE27F6
:047FF000FF270994CA
:027FFE00040479
:0400000300007E007B
:00000001FF
